:100000008031182800002030850006308400000868
:10001000031917280A30A100A001A00B0D28A10B7D
:100020000C285F30A000A00B1328800B0A280800C2
:10003000850184011F308305F430210099002000E0
:10004000A40123008C018E012200920191019401F0
:10005000930121008C018E0120008C018E01203043
:10006000A400A408031944282408083C03194128C3
:1000700024088C000230A500FA30A6000320A50B4E
:100080003C280310A40C31288C012030A400A408C3
:100090000319562824088E000230A500FA30A60065
:1000A0000320A50B4E280310A40C47288E01023014
:1000B000A4002408213C031C692824088E00023077
:1000C000A500FA30A6000320A50B61280310A40D9B
:1000D00059288E010130A40024081F3C031C8028ED
:1000E0002408083C03197D2824088C000230A50050
:1000F000FA30A6000320A50B78280310A40D6C2865
:0A0100008C012F280030A1006300DD
:020000040001F9
:04000E00C43FFF1ECE
:00000001FF
;PIC16F1823
;CRC=2793  CREATED="23-sep.-18 00:52"
