:0600000080311F28000002
:0800080083018A012000200899
:10001000A4002108A5002208A6002308A7000B1EA3
:1000200013288B181C282408A0002508A1002608E6
:10003000A2002708A30009008B1080311328850136
:1000400084011F30830523008C018E012200920160
:100050009101940193010B16C0308B0401302100F3
:100060008C0000308E00013020008C008E010C18B6
:100070003D2822000E103F28200022000E142000F0
:0400800037286300BA
:020000040001F9
:04000E00873FFF1F0A
:00000001FF
;PIC16F1823
;CRC=0117  CREATED="14-oct.-18 01:26"
