:06000000803154290000CC
:0800080083018A012000200899
:10001000A4002108A5002208A6002308A700850146
:1000200091308400801D16289119F4282408A0001E
:100030002508A1002608A2002708A3000900210026
:100040000E1222000E1208302000A1002728000006
:10005000A1173C28A113B10C220003180E16031C93
:100060000E12200021173C282113A10B2B28382821
:10007000000022000E1620000130A0008401840B35
:100080003F28A00B3E280D308400840B45284828CB
:10009000A11B2A28211B34280800230095171514BA
:1000A000000000000318762813087F392000AE00F6
:1000B000230011082000AF00230012082000B00028
:1000C0002E08B1001F202F082300910020003008C7
:1000D0002300920095171514000000002000AD0BBE
:1000E000722874282300762894282300130D140DF9
:1000F0007F392000AE00230011082000AF0023004C
:1001000012082000B0002E08B1001F202F08230085
:1001100091002000300823009200910A0319920AEE
:1001200003102000AD0B4D2808003008A1012F025C
:1001300003189D282F08A000A928A0010830B100AD
:10014000AF0DA00D300820020318A000A10DB10BC7
:10015000A028080021082D08AF006430B0009520C9
:100160002008AD0021083030031DBD28AE1CC42876
:10017000AE19C4282E1A2030C028AE112E122E140B
:10018000A1072108B1001F202D08AF000A30B000E0
:1001900095202008AD0021083030031DD528AE1968
:1001A000D9282E1CD9282E1A2030A1072108B100E9
:1001B0001F203030AD072D08B1001F20080020306F
:1001C00085000D30840000080319F3280A30A100CF
:1001D000A001A00BE928A10BE8285F30A000A00B2C
:1001E000EF28800BE62808002400941AFF2820003E
:1001F000AA012400141DFF282000AA1724002000B3
:100200002A08AA0AAC004230230091000130920073
:1002100003100C302000AD004D202C08AD001B3029
:10022000AE00AA202C087F3C03183F294A30230047
:10023000910001309200031011302000AD004D20DC
:100240002C08AD001B30AE00AA202908AD00240008
:10025000110820002D08240091001516200091118E
:100260002400141831292000A1012400151E3B2967
:100270002000A10A240064302000AD00DF2091118D
:10028000803116286537743965106110693774102C
:10029000A53A00006537743965106110733A613A08
:1002A00065103818A0127500850184011F30830580
:1002B000F430210099000E1222000E1621000E14B7
:1002C0008E1460302400920036309500613020009A
:1002D000A9000330AA0023008C018E0122009201A4
:1002E00091019401930121009115C0308B042000ED
:1002F000A8018B1BA8178B136430AD00DF20A81B4F
:060300008B177829630051
:020000040001F9
:04000E00843FFF1E0E
:00000001FF
;PIC16F1823
;CRC=9956  CREATED="06-oct.-18 16:55"
