:0600000080312C280000F5
:0800080083018A012000200899
:10001000A4002108A5002208A6002308A700850146
:1000200091308400001C162811181F282408A000F5
:100030002508A1002608A2002708A3000900210026
:100040000E10013022008E06FF3020009700FE3097
:100050009600111080311628850184011F30830518
:10006000F4302100990023008C018E0122009201BE
:1000700091019401930121001114C0308B042200DE
:100080009D113530200098009901FE3095004728D9
:0200900063000B
:020000040001F9
:04000E00843FFF1E0E
:00000001FF
;PIC16F1823
;CRC=2FC1  CREATED="05-oct.-18 16:31"
