:1000000080310E2B0000D02754103D1025183317D7
:100010003233A00600008E30A0002E08A1002D086B
:10002000A200A301A108031D1F282208A100A2010C
:100030000830A002A108031D1F28A00127280310D3
:10004000A11B2628A20DA10DA0031F28A1138031FA
:100050004C2B3A0803199928C2003E080319992825
:10006000C20703183A287F30C202031C99280319DB
:1000700099283E288130C207031899284208A00019
:10008000A101A201A3013B08C600C6173C08C50098
:100090003D08C4001830C200C301441C6728410851
:1000A000A307031C5928A20A031D5928A10A0319F2
:1000B000C3174008A207031C6028A10A0319C3172D
:1000C0003F08BC00BC173C08A1070318C317C30DA9
:1000D000A10CA20CA30CC60CC50CC40C0310C20BC3
:1000E0004C280130A00703189928A11B7E28C60DB3
:1000F000A30DA20DA10DA00303199928C61F8F28D7
:10010000A30A031D8F28A20A031D8F28A10A031D1D
:100110008F28A10CA20CA30CA00A031999283B0854
:10012000C3003F08C306C31F9728A1179D28A1132A
:100130009D28A001A101A201A30108003108031913
:100140006329BD00350803196329BD02031CAD28CE
:100150007F30BD0703186329B3288130BD02031C1B
:100160006329031963293D08A000A101A201A3018D
:10017000BC013208BB00BB173308BA003408B90011
:100180001930BD003808B9020318D6280130BA0268
:100190000318D628BB020318D628BC020318D62899
:1001A000BC0ABB0ABA0A3808B90708293708BA02D4
:1001B0000318F1280130BB020318F128BC02031810
:1001C000F128BC0ABB0A3708BA073808B907031C6C
:1001D0000829BA0A031D0829BB0A031D0829BC0AFD
:1001E000082936088038BB02031807290130BC02F1
:1001F00003180729BC0A36088038BB073708BA0736
:10020000031CE528BB0A031DE528BC0AE5282314C6
:10021000BD0B0B2916290310B90DBA0DBB0DBC0D72
:100220000310A30DA20DA10DBE0DC2283E1C1E2958
:100230000310A10CA20CA30CBE0C2129A0030319CE
:100240006329BE1B4A290310B90DBA0DBB0DBC0DA5
:100250003808B902031836290130BA0203183629C2
:10026000BB0203183629BC02031C59293708BA02FD
:10027000031841290130BB0203184129BC02031CA9
:10028000592936088038BB0203184A290130BC02BC
:10029000031C5929A30A031D5929A20A031D592920
:1002A000A10A031D5929A00A03196329A10CA20C54
:1002B000A30C3208BD003608BD06BD1F6129A11779
:1002C0006729A1136729A001A101A201A30180311F
:1002D0007E2B21000E1222000E1208302000A100F9
:1002E00071290000A1178629A113BA0C2200031856
:1002F0000E16031C0E122000211786292113A10BB4
:1003000075298229000022000E1620000130A0006D
:100310008401840B8929A00B88290D308400840B6B
:100320008F299229A11B7429211B7E2908002300F3
:1003300095171514000000000318C02913087F3911
:100340002000AE00230011082000AF002300120897
:100350002000B0002E08BA0069212F082300910068
:1003600020003008230092009517151400000000AB
:100370002000AD0BBC29BE292300C029DE292300A3
:10038000130D140D7F392000AE002300110820004A
:10039000AF00230012082000B0002E08BA00692127
:1003A0002F08230091002000300823009200910ABA
:1003B0000319920A03102000AD0B97298031902B6E
:1003C0008318E529850142308400A001A101A20122
:1003D000A301C201C301C401C501410840043F0497
:1003E0003E040319232A2030C6000310BA0DBB0DAA
:1003F000BC0DBD0DC20DC30DC40DC50D4108450298
:10040000031D0C2A40084402031D0C2A3F08430226
:10041000031D0C2A3E084202031C1D2A3E08C2028C
:100420003F08031C3F0FC3024008031C400FC402D7
:100430004108031C410FC5020314A00DA10DA20D1C
:10044000A30DC60BF529420880004308813F4408EC
:10045000823F4508833F08000408B2003108B40019
:1004600003194B2A3008BD002F08BC002E08BB0022
:100470002D08BA00C101C0012030BF008230BE008B
:1004800029202308B0002208AF002108AE00200870
:10049000AD00B40B322A3008BD002F08BC002E0876
:1004A000BB002D08BA003A08B63CBA00A3013B08CD
:1004B000BE00BB170310BB0CBC0CBD0CA30CA20CE4
:1004C000A10CA00CBA0B5A2ABE1F712AA009A109BF
:1004D000A209A309A00A0319A10A0319A20A031970
:1004E000A30A2308B0002208AF002108AE002008AC
:1004F000AD00B01F882AB203B216AD09AE09AF092C
:10050000B009AD0A0319AE0A0319AF0A0319B00AFC
:100510003B30B9009A30B800CA30B700B6010A3093
:10052000B40031080319B20A8314203085000D305D
:1005300084003008BD002F08BC002E08BB002D0829
:10054000BA003908C1003808C0003708BF003608B3
:10055000BE00E0212108A008031DC12A310A34028F
:100560000319C12A32080319C32A0F3934020319A7
:10057000BB2A0318F32AB21BF32A321BC32A2030EA
:10058000EF2A2030B205B21ED12AB2123108031D63
:10059000B2032008B2002D30BA0069213208A00051
:1005A000B20131083402031DDF2A2008B2002E30C8
:1005B000BA0069213208A0002030B2050030303086
:1005C000B21EEF2AB2123108031DB2032008B20096
:1005D0002D30BA0069213208A000B2013030A007E6
:1005E0002008BA00692183103908BD003808BC0012
:1005F0003708BB003608BA00C101C001BF010A308C
:10060000BE00E0212308B9002208B8002108B70085
:100610002008B600B40B942A80319D2B85018401FB
:100620001F308305F430210099000E1222000E16AF
:1006300023008C018E01220092019101940193010B
:100640002000A801A701A601A501AC01AB01AA01E8
:10065000A90121001E129E161E179E171D141E10A2
:100660009E10013023008C0000308E002000A1007D
:1006700021001D08C3392000210421009D009D1484
:100680009D18402B1C082000A30021001B082000FF
:10069000AD002308AE000B282308A8002208A700FD
:1006A0002108A6002008A5000530A000A00B562BAD
:1006B0002808BD002708BC002608BB002508BA0092
:1006C000C101C0012030BF008130BE0029202008B8
:1006D000AD002108AE002208AF002308B000B4002E
:1006E0002208B3002108B2002008B100B801C030D0
:1006F000B7007F30B6008830B5009E282308AC00D4
:100700002208AB002108AA002008A900033023001A
:10071000910000309200031006302000AD009729B0
:10072000423084002C08B0002B08AF002A08AE002D
:100730002908AD000230B1002C2A2030BA0069210E
:100740000D30BA00692121003F2B00302000A100AC
:02075000630044
:020000040001F9
:04000E00843FFF1E0E
:00000001FF
;PIC16F1823
;CRC=C773  CREATED="05-oct.-18 17:57"
