:100000008031182800002030850006308400000868
:10001000031917280A30A100A001A00B0D28A10B7D
:100020000C285F30A000A00B1328800B0A280800C2
:10003000850184011F308305F430210099002300DD
:100040008C018E0122009201910194019301210003
:100050008C018E0120008E0101308C000230A50041
:10006000FA30A6000320A50B30280C08203C031909
:100070004A280C08043C031D402810308C004228FC
:1000800003108C0D0230A500FA30A6000320A50B4A
:10009000442835288C0101308E000230A500FA304A
:1000A000A6000320A50B4F280E08203C0319622848
:1000B00003108E0D0230A500FA30A6000320A50B18
:1000C0005C2854288C0120308E000230A500FA30C4
:1000D000A6000320A50B67288E08031979280310B2
:1000E0008E0C0230A500FA30A6000320A50B732861
:1000F0006C288E0120308C000230A500FA30A6005A
:100100000320A50B7E288C08031997280C08103CA7
:10011000031D8D2804308C008F2803108C0C0230B6
:10012000A500FA30A6000320A50B912883282B28D0
:0201300063006A
:020000040001F9
:04000E00C43FFF1ECE
:00000001FF
;PIC16F1823
;CRC=ECBA  CREATED="21-sep.-18 17:25"
