:1000000080312E2800002030850006308400000852
:10001000031917280A30A100A001A00B0D28A10B7D
:100020000C285F30A000A00B1328800B0A280800C2
:100030000C308E006430A600032009308E0064303E
:10004000A600032003308E006430A6000320063093
:100050008E006430A600032080314E288501840183
:100060001F308305F4302100990023008C018E019C
:1000700022009201910194019301013021008C0032
:100080008E0120008E0125100C1C4B28C830A600C4
:1000900003200130A506251C4E281828442863009B
:020000040001F9
:04000E00C43FFF1ECE
:00000001FF
;PIC16F1823
;CRC=D92D  CREATED="22-sep.-18 11:35"
