:100000008031C2280000C430F4373A10A531000016
:10001000240095132000911128082400910002303B
:10002000951B19282000911D132800302400161B51
:1000300001302000A1008031EB28203085000830FD
:1000400084000008031931280A30A100A001A00B88
:100050002728A10B26285F30A000A00B2D28800B9D
:100060002428080024001513961596193528200019
:10007000201C3D282400961220002018422824002D
:100080009616200024001616161A4428110820007F
:10009000A1008031F22821000E1222000E12083039
:1000A0002000A10053280000A1176828A113AC0C60
:1000B000220003180E16031C0E12200021176828B8
:1000C0002113A10B57286428000022000E162000DF
:1000D0000130A0008401840B6B28A00B6A280D302E
:1000E0008400840B71287428A11B5628211B6028CA
:1000F0000800230095171514000000000318A2281B
:1001000013087F392000A900230011082000AA004D
:10011000230012082000AB002908AC004B202A085D
:100120002300910020002B0823009200951715143E
:10013000000000002000A80B9E28A0282300A22871
:10014000C0282300130D140D7F392000A9002300BF
:1001500011082000AA00230012082000AB00290883
:10016000AC004B202A082300910020002B0823001C
:100170009200910A0319920A03102000A80B792813
:1001800080310529850184011F308305F430210069
:1001900099000E1222000E1621000E148E144F30FC
:1001A0002400920028309500941714132000A40115
:1001B000A501A601A70123008C018E012200920156
:1001C000910194019301240016141618E52851306A
:1001D0002000A80008282108A4006430A8001D20E1
:1001E000A00132282108A6006430A8001D202400A8
:1001F00016151619F92803302300910000309200DB
:10020000031006302000A80079282608AC004B20F7
:0C0210002200E32800302000A100630061
:020000040001F9
:04000E00843FFF1E0E
:00000001FF
;PIC16F1823
;CRC=D4FA  CREATED="06-oct.-18 10:38"
