:100000008031182800002030850007308400000867
:10001000031917280A30A100A001A00B0D28A10B7D
:100020000C285F30A000A00B1328800B0A280800C2
:10003000850184011F308305F430210099001A08DE
:1000400023008C018E012200920191019401930101
:10005000013021008C008E0120002510A6010C1C0F
:100060004B282514251C4A280C308E006430A7002C
:10007000032009308E006430A700032003308E0077
:100080006430A700032006308E006430A7000320F0
:0A0090000C184A282F282F286300BF
:020000040001F9
:04000E00C43FFF1ECE
:00000001FF
;PIC16F1823
;CRC=C347  CREATED="22-sep.-18 11:23"
