:100000008031182800002030850006308400000868
:10001000031917280A30A100A001A00B0D28A10B7D
:100020000C285F30A000A00B1328800B0A280800C2
:10003000850184011F308305F430210099002300DD
:100040008C018E0122009201910194019301200004
:10005000A501013021008C0000308E00013020000D
:100060008C008E016430A60003200E108E100E113D
:100070008E110C18A5280C1D71280430A500A508A8
:100080000319702804302502A6000130A0002608BC
:10009000A10003194E28A035A10B4B282008FF3AD8
:1000A0008E050130A0002508A10003195A28A035AB
:1000B000A10B57282008FF3A8E0501302502A60023
:1000C0000130A0002608A10003196928A035A10B62
:1000D000662820088E046430A6000320A5033F286C
:1000E000A428A5012508033C031CA42801302502EF
:1000F000A6000130A0002608A10003198228A0351F
:10010000A10B7F282008FF3A8E0502302507A600A4
:100110000130A0002608A10003199128A035A10BE9
:100120008E282008FF3A8E050130A0002508A10086
:1001300003199D28A035A10B9A2820088E0464304D
:10014000A6000320A50A7228A9280E108E100E11F1
:0A0150008E1139280030A100630071
:020000040001F9
:04000E00843FFF1E0E
:00000001FF
;PIC16F1823
;CRC=9ACA  CREATED="24-oct.-18 23:41"
