:10000000803177280000A4190E280E118E11241EAD
:100010000C288E100E140E280E108E140030A10025
:100020008031B328A41D73280E108E10241A462880
:10003000A5012508033C031C452802302507A6001E
:100040000130A0002608A10003192928A035A10B22
:10005000262820088E0401302507A6000130A000C4
:100060002608A10003193728A035A10B3428200841
:10007000FF3A8E0524100C182414A4108C18A41414
:1000800024110C192415A50A192873280430A50079
:10009000A5080319732801302507A6000130A00028
:1000A0002608A10003195728A035A10B54282008C1
:1000B0008E0402302507A6000130A0002608A1000A
:1000C00003196528A035A10B62282008FF3A8E0588
:1000D00024100C182414A4108C18A41424110C1926
:1000E0002415A50348280030A1008031B4288501DB
:1000F00084011F308305F430210099001A08200084
:100100002410A4102411A4112412A41223008C0181
:100110008E0122009201910194019301003021008F
:100120008E0001308C0020008C008E010E140C1CFF
:100130009D2824189D280830A4068C1CA328A418E8
:10014000A3281030A4060C1DA9282419A9282030A2
:10015000A40624100C182414A4108C18A414241120
:100160000C1924150328122897280030A1006300D9
:020000040001F9
:04000E00843FFF1E0E
:00000001FF
;PIC16F1823
;CRC=D080  CREATED="07-oct.-18 23:50"
