:100000008031192800002030850005308400000868
:10001000031917280A30A100A001A00B0D28A10B7D
:100020000C285F30A000A00B1328800B0A28803119
:100030003828850184011F308305F43021009900A0
:1000400023008C018E012200920191019401930101
:10005000013021008C0000308E00013020008C0027
:100060008E010E108E100E118E116430A500032823
:100070000C1C4D280E140C1D45288E100230A000BB
:10008000A00B402800000E144C280E100230A000D7
:10009000A00B482800008E144F280E108E10382810
:0600A0000030A100630026
:020000040001F9
:04000E00843FFF1E0E
:00000001FF
;PIC16F1823
;CRC=59E7  CREATED="24-oct.-18 23:09"
