:100000008031192800002030850005308400000868
:10001000031917280A30A100A001A00B0D28A10B7D
:100020000C285F30A000A00B1328800B0A28803119
:100030003428850184011F308305F43021009900A4
:1000400023008C018E012200920191019401930101
:10005000013021008C0000308E00013020008C0027
:100060008E016430A50003280C1C38280E14392892
:100070000E100C1D3E280E148E1040288E140E10EB
:0800800034280030A1006300E8
:020000040001F9
:04000E00843FFF1E0E
:00000001FF
;PIC16F1823
;CRC=40B4  CREATED="23-oct.-18 20:42"
