:100000008031192800002030850005308400000868
:10001000031917280A30A100A001A00B0D28A10B7D
:100020000C285F30A000A00B1328800B0A28803119
:100030003428850184011F308305F43021009900A4
:1000400023008C018E012200920191019401930101
:100050000F3021008C0000308E00013020008C0019
:100060008E016430A50003280E108E108E110C1C1A
:100070003B280E143C280E108C1C41288E148E1127
:1000800043288E108E150C1D47280E1548280E117A
:0800900037280030A1006300D5
:020000040001F9
:04000E00843FFF1E0E
:00000001FF
;PIC16F1823
;CRC=0137  CREATED="24-oct.-18 23:05"
