:06000000803165280000BC
:0800080083018A012000200899
:10001000A4002108A5002208A6002308A7008B1E23
:1000200013280B191C282408A0002508A100260865
:10003000A2002708A3000900A80A0319A90A2A1484
:100040002808E83C031D2E282908033C031D2E2800
:10005000AB0A0319AC0AA901A801AA142B081E3C7B
:10006000031D3828AC08031D38282A15AC01AB0144
:10007000E13095000B11803113280230AF02031CD0
:100080004E28203085000F308400000803194E28C8
:100090004C284A284B280000800B4928803197289B
:1000A00020308500103084000008031964280A30CD
:1000B000A100A001A00B5A28A10B59285F30A00075
:1000C000A00B6028800B57280800850184011F3091
:1000D0008305F430210099002000A901A8012A100D
:1000E000AC01AB01AA10AE01AD012A1123008C01B5
:1000F0008E012200920191019401930121008E0151
:1001000022008E018B16C0308B0421001508C039E7
:1001100007389500E130200095002A1C9D28210019
:100120000E1022000E1464302000AF003D28210084
:100130000E1022000E1020002A10AA1CAD2821004B
:100140008E1022008E140A302000B00050202100B2
:100150008E1022008E102000AA102A1DC128210016
:100160000E1122000E1504302000AF00FA30B0004E
:100170005020AF0BB62821000E1122000E112000D6
:060180002A118D28630026
:020000040001F9
:04000E00843FFF1E0E
:00000001FF
;PIC16F1823
;CRC=F868  CREATED="30-sep.-18 15:59"
