:0600000080314A280000D7
:0800080083018A012000200899
:10001000A4002108A5002208A6002308A7008B1E23
:1000200013280B191C282408A0002508A100260865
:10003000A2002708A3000900A80A0319A90A280892
:10004000E83C031D2F282908033C031D2F2821000D
:100050008E10023022008E062000A901A801E13096
:1000600095000B1180311328203085000A30840060
:100070000008031948280A30A100A001A00B3E285F
:10008000A10B3D285F30A000A00B4428800B3B282B
:1000900080316F28850184011F308305F4302100F1
:1000A00099002000A901A80123008C018E012200E3
:1000B00092019101940193018B16C0308B042100B1
:1000C0001508C03907389500E1302000950021005F
:1000D0000E10013022008E062000AA003428672866
:0200E0006300BB
:020000040001F9
:04000E00843FFF1E0E
:00000001FF
;PIC16F1823
;CRC=E324  CREATED="29-sep.-18 11:03"
