:0600000080313D280000E4
:0800080083018A012000200899
:10001000A4002108A5002208A6002308A7008B1E23
:1000200013280B191C282408A0002508A100260865
:10003000A2002708A300090021000E1104302200AD
:100040008E06FF30200095000B11803113282030E0
:1000500085000A308400000803193B280A30A100FB
:10006000A001A00B3128A10B30285F30A000A00B0D
:100070003728800B2E2880316228850184011F30AB
:100080008305F430210099002000A901A801230074
:100090008C018E01220092019101940193018B1633
:1000A000C0308B0421001508C73928389500FF306F
:1000B0002000950021000E10013022008E06200045
:0800C000AA0027285A2863005A
:020000040001F9
:04000E00843FFF1E0E
:00000001FF
;PIC16F1823
;CRC=AD6F  CREATED="29-sep.-18 12:26"
